{
  "contractName": "ElectionPortal",
  "abi": [
    {
      "inputs": [
        {
          "internalType": "uint256",
          "name": "",
          "type": "uint256"
        }
      ],
      "name": "elections",
      "outputs": [
        {
          "internalType": "uint256",
          "name": "id",
          "type": "uint256"
        },
        {
          "internalType": "string",
          "name": "title",
          "type": "string"
        },
        {
          "internalType": "enum ElectionPortal.State",
          "name": "state",
          "type": "uint8"
        },
        {
          "internalType": "address",
          "name": "owner",
          "type": "address"
        }
      ],
      "stateMutability": "view",
      "type": "function",
      "constant": true
    },
    {
      "inputs": [],
      "name": "getElections",
      "outputs": [
        {
          "internalType": "string[]",
          "name": "",
          "type": "string[]"
        }
      ],
      "stateMutability": "view",
      "type": "function",
      "constant": true
    },
    {
      "inputs": [
        {
          "internalType": "uint256",
          "name": "_electionId",
          "type": "uint256"
        }
      ],
      "name": "getElectionTitle",
      "outputs": [
        {
          "internalType": "string",
          "name": "_title",
          "type": "string"
        }
      ],
      "stateMutability": "view",
      "type": "function",
      "constant": true
    },
    {
      "inputs": [
        {
          "internalType": "uint256",
          "name": "_electionId",
          "type": "uint256"
        }
      ],
      "name": "getCandidates",
      "outputs": [
        {
          "components": [
            {
              "internalType": "uint256",
              "name": "id",
              "type": "uint256"
            },
            {
              "internalType": "uint256",
              "name": "voteCount",
              "type": "uint256"
            },
            {
              "internalType": "string",
              "name": "name",
              "type": "string"
            },
            {
              "internalType": "string",
              "name": "imageURL",
              "type": "string"
            }
          ],
          "internalType": "struct ElectionPortal.Candidate[]",
          "name": "_candidates",
          "type": "tuple[]"
        }
      ],
      "stateMutability": "view",
      "type": "function",
      "constant": true
    },
    {
      "inputs": [
        {
          "internalType": "uint256",
          "name": "_electionId",
          "type": "uint256"
        }
      ],
      "name": "isOwner",
      "outputs": [
        {
          "internalType": "bool",
          "name": "",
          "type": "bool"
        }
      ],
      "stateMutability": "view",
      "type": "function",
      "constant": true
    },
    {
      "inputs": [
        {
          "internalType": "uint256",
          "name": "_electionId",
          "type": "uint256"
        }
      ],
      "name": "hasVoted",
      "outputs": [
        {
          "internalType": "bool",
          "name": "_hasVoted",
          "type": "bool"
        }
      ],
      "stateMutability": "view",
      "type": "function",
      "constant": true
    },
    {
      "inputs": [
        {
          "internalType": "uint256",
          "name": "_electionId",
          "type": "uint256"
        }
      ],
      "name": "isEligible",
      "outputs": [
        {
          "internalType": "bool",
          "name": "_eligible",
          "type": "bool"
        }
      ],
      "stateMutability": "view",
      "type": "function",
      "constant": true
    },
    {
      "inputs": [
        {
          "internalType": "uint256",
          "name": "_electionId",
          "type": "uint256"
        },
        {
          "internalType": "uint256",
          "name": "_candidateId",
          "type": "uint256"
        }
      ],
      "name": "vote",
      "outputs": [],
      "stateMutability": "nonpayable",
      "type": "function"
    },
    {
      "inputs": [
        {
          "internalType": "uint256",
          "name": "_electionId",
          "type": "uint256"
        }
      ],
      "name": "getElectionState",
      "outputs": [
        {
          "internalType": "uint256",
          "name": "",
          "type": "uint256"
        }
      ],
      "stateMutability": "view",
      "type": "function",
      "constant": true
    },
    {
      "inputs": [
        {
          "internalType": "string",
          "name": "_title",
          "type": "string"
        },
        {
          "internalType": "string[]",
          "name": "_candidateNames",
          "type": "string[]"
        },
        {
          "internalType": "string[]",
          "name": "_candidateimageURLs",
          "type": "string[]"
        },
        {
          "internalType": "address[]",
          "name": "_eligibleVoters",
          "type": "address[]"
        }
      ],
      "name": "createElection",
      "outputs": [],
      "stateMutability": "nonpayable",
      "type": "function"
    },
    {
      "inputs": [
        {
          "internalType": "uint256",
          "name": "_electionId",
          "type": "uint256"
        }
      ],
      "name": "startElection",
      "outputs": [],
      "stateMutability": "nonpayable",
      "type": "function"
    },
    {
      "inputs": [
        {
          "internalType": "uint256",
          "name": "_electionId",
          "type": "uint256"
        }
      ],
      "name": "endElection",
      "outputs": [],
      "stateMutability": "nonpayable",
      "type": "function"
    }
  ],
  "bytecode": "0x608060405234801561001057600080fd5b5061159d806100206000396000f3fe608060405234801561001057600080fd5b50600436106100b45760003560e01c80639c98bcbb116100715780639c98bcbb1461016c5780639f3a7f521461017f578063abbc5a4b14610194578063b210eaa8146101a7578063b384abef146101c8578063ecca031f146101db57600080fd5b8063053b56c0146100b957806339c7639c146100e15780633e39a7a5146100f45780634d94fc6a146101145780635e6fef01146101345780636d32dc4b14610157575b600080fd5b6100cc6100c7366004610f5e565b6101ee565b60405190151581526020015b60405180910390f35b6100cc6100ef366004610f5e565b61022b565b610107610102366004610f5e565b610281565b6040516100d89190610fbd565b610127610122366004610f5e565b61043c565b6040516100d89190611059565b610147610142366004610f5e565b6104f2565b6040516100d89493929190611089565b61016a610165366004610f5e565b6105c4565b005b61016a61017a366004610f5e565b6107ab565b6101876108cd565b6040516100d891906110e2565b61016a6101a23660046112af565b610a13565b6101ba6101b5366004610f5e565b610cc0565b6040519081526020016100d8565b61016a6101d63660046113c5565b610d5d565b6100cc6101e9366004610f5e565b610f21565b6000808281548110610202576102026113e7565b600091825260208083203384526004600690930201919091019052604090205460ff1692915050565b6000336001600160a01b03166000838154811061024a5761024a6113e7565b600091825260209091206006909102016003015461010090046001600160a01b03160361027957506001919050565b506000919050565b606060008281548110610296576102966113e7565b9060005260206000209060060201600201805480602002602001604051908101604052809291908181526020016000905b828210156104315783829060005260206000209060040201604051806080016040529081600082015481526020016001820154815260200160028201805461030e906113fd565b80601f016020809104026020016040519081016040528092919081815260200182805461033a906113fd565b80156103875780601f1061035c57610100808354040283529160200191610387565b820191906000526020600020905b81548152906001019060200180831161036a57829003601f168201915b505050505081526020016003820180546103a0906113fd565b80601f01602080910402602001604051908101604052809291908181526020018280546103cc906113fd565b80156104195780601f106103ee57610100808354040283529160200191610419565b820191906000526020600020905b8154815290600101906020018083116103fc57829003601f168201915b505050505081525050815260200190600101906102c7565b505050509050919050565b606060008281548110610451576104516113e7565b9060005260206000209060060201600101805461046d906113fd565b80601f0160208091040260200160405190810160405280929190818152602001828054610499906113fd565b80156104e65780601f106104bb576101008083540402835291602001916104e6565b820191906000526020600020905b8154815290600101906020018083116104c957829003601f168201915b50505050509050919050565b6000818154811061050257600080fd5b60009182526020909120600690910201805460018201805491935090610527906113fd565b80601f0160208091040260200160405190810160405280929190818152602001828054610553906113fd565b80156105a05780601f10610575576101008083540402835291602001916105a0565b820191906000526020600020905b81548152906001019060200180831161058357829003601f168201915b5050506003909301549192505060ff8116906001600160a01b036101009091041684565b600081815481106105d7576105d76113e7565b600091825260209091206006909102016003015461010090046001600160a01b031633146106575760405162461bcd60e51b815260206004820152602260248201527f4f6e6c79206f776e65722063616e2073746172742074686520656c656374696f604482015261371760f11b60648201526084015b60405180910390fd5b60016000828154811061066c5761066c6113e7565b600091825260209091206003600690920201015460ff16600281111561069457610694611073565b036106e15760405162461bcd60e51b815260206004820181905260248201527f456c656374696f6e20697320616c726561647920696e2070726f67726573732e604482015260640161064e565b6002600082815481106106f6576106f66113e7565b600091825260209091206003600690920201015460ff16600281111561071e5761071e611073565b036107615760405162461bcd60e51b815260206004820152601360248201527222b632b1ba34b7b7103430b99032b73232b21760691b604482015260640161064e565b600160008281548110610776576107766113e7565b60009182526020909120600360069092020101805460ff191660018360028111156107a3576107a3611073565b021790555050565b600081815481106107be576107be6113e7565b600091825260209091206006909102016003015461010090046001600160a01b0316331461082e5760405162461bcd60e51b815260206004820181905260248201527f4f6e6c79206f776e65722063616e20656e642074686520656c656374696f6e2e604482015260640161064e565b600160008281548110610843576108436113e7565b600091825260209091206003600690920201015460ff16600281111561086b5761086b611073565b146108b85760405162461bcd60e51b815260206004820152601c60248201527f456c656374696f6e206973206e6f7420696e2070726f67726573732e00000000604482015260640161064e565b600260008281548110610776576107766113e7565b600080546060919067ffffffffffffffff8111156108ed576108ed611144565b60405190808252806020026020018201604052801561092057816020015b606081526020019060019003908161090b5790505b50905060005b600054811015610a0d5760008181548110610943576109436113e7565b9060005260206000209060060201600101805461095f906113fd565b80601f016020809104026020016040519081016040528092919081815260200182805461098b906113fd565b80156109d85780601f106109ad576101008083540402835291602001916109d8565b820191906000526020600020905b8154815290600101906020018083116109bb57829003601f168201915b50505050508282815181106109ef576109ef6113e7565b60200260200101819052508080610a0590611431565b915050610926565b50919050565b600283511015610a5e5760405162461bcd60e51b815260206004820152601660248201527521b0b73234b230ba32b9903632b9b9903a3430b7101960511b604482015260640161064e565b8151835114610abe5760405162461bcd60e51b815260206004820152602660248201527f45766572792063616e646964617465206d757374206861766520616e20696d6160448201526519d94815549360d21b606482015260840161064e565b600181511015610afc5760405162461bcd60e51b81526020600482015260096024820152684e6f20766f7465727360b81b604482015260640161064e565b6000805460018101808355828052909190819083908110610b1f57610b1f6113e7565b9060005260206000209060060201905085816001019081610b4091906114a7565b506003810180546001600160a81b031916336101000217905560005b8551811015610c4c57610b906040518060800160405280600081526020016000815260200160608152602001606081525090565b818152600060208201528651879083908110610bae57610bae6113e7565b60200260200101518160400181905250858281518110610bd057610bd06113e7565b60209081029190910181015160608301526002808501805460018181018355600092835291849020855160049092020190815592840151908301556040830151839291820190610c2090826114a7565b5060608201516003820190610c3590826114a7565b505050508080610c4490611431565b915050610b5c565b5060005b8351811015610cb7576001826004016000868481518110610c7357610c736113e7565b6020908102919091018101516001600160a01b03168252810191909152604001600020805460ff191691151591909117905580610caf81611431565b915050610c50565b50505050505050565b60008060008381548110610cd657610cd66113e7565b600091825260209091206003600690920201015460ff166002811115610cfe57610cfe611073565b03610d0b57506000919050565b600160008381548110610d2057610d206113e7565b600091825260209091206003600690920201015460ff166002811115610d4857610d48611073565b03610d5557506001919050565b506002919050565b600160008381548110610d7257610d726113e7565b600091825260209091206003600690920201015460ff166002811115610d9a57610d9a611073565b14610de75760405162461bcd60e51b815260206004820152601860248201527f456c656374696f6e206e6f7420696e2070726f67726573730000000000000000604482015260640161064e565b610df0826101ee565b610e3c5760405162461bcd60e51b815260206004820152601760248201527f496e656c696769626c6520666f7220656c656374696f6e000000000000000000604482015260640161064e565b610e4582610f21565b15610e825760405162461bcd60e51b815260206004820152600d60248201526c105b1c9958591e481d9bdd1959609a1b604482015260640161064e565b60008281548110610e9557610e956113e7565b90600052602060002090600602016002018181548110610eb757610eb76113e7565b600091825260208220600160049092020101805491610ed583611431565b9190505550600160008381548110610eef57610eef6113e7565b60009182526020808320338452600692909202909101600501905260409020805460ff19169115159190911790555050565b6000808281548110610f3557610f356113e7565b600091825260208083203384526005600690930201919091019052604090205460ff1692915050565b600060208284031215610f7057600080fd5b5035919050565b6000815180845260005b81811015610f9d57602081850181015186830182015201610f81565b506000602082860101526020601f19601f83011685010191505092915050565b60006020808301818452808551808352604092508286019150828160051b87010184880160005b8381101561104b57603f198984030185528151608081518552888201518986015287820151818987015261101a82870182610f77565b915050606080830151925085820381870152506110378183610f77565b968901969450505090860190600101610fe4565b509098975050505050505050565b60208152600061106c6020830184610f77565b9392505050565b634e487b7160e01b600052602160045260246000fd5b8481526080602082015260006110a26080830186610f77565b9050600384106110c257634e487b7160e01b600052602160045260246000fd5b60408201939093526001600160a01b039190911660609091015292915050565b6000602080830181845280855180835260408601915060408160051b870101925083870160005b8281101561113757603f19888603018452611125858351610f77565b94509285019290850190600101611109565b5092979650505050505050565b634e487b7160e01b600052604160045260246000fd5b604051601f8201601f1916810167ffffffffffffffff8111828210171561118357611183611144565b604052919050565b600082601f83011261119c57600080fd5b813567ffffffffffffffff8111156111b6576111b6611144565b6111c9601f8201601f191660200161115a565b8181528460208386010111156111de57600080fd5b816020850160208301376000918101602001919091529392505050565b600067ffffffffffffffff82111561121557611215611144565b5060051b60200190565b600082601f83011261123057600080fd5b81356020611245611240836111fb565b61115a565b82815260059290921b8401810191818101908684111561126457600080fd5b8286015b848110156112a457803567ffffffffffffffff8111156112885760008081fd5b6112968986838b010161118b565b845250918301918301611268565b509695505050505050565b600080600080608085870312156112c557600080fd5b843567ffffffffffffffff808211156112dd57600080fd5b6112e98883890161118b565b955060209150818701358181111561130057600080fd5b61130c89828a0161121f565b95505060408701358181111561132157600080fd5b61132d89828a0161121f565b94505060608701358181111561134257600080fd5b87019050601f8101881361135557600080fd5b8035611363611240826111fb565b81815260059190911b8201830190838101908a83111561138257600080fd5b928401925b828410156113b65783356001600160a01b03811681146113a75760008081fd5b82529284019290840190611387565b979a9699509497505050505050565b600080604083850312156113d857600080fd5b50508035926020909101359150565b634e487b7160e01b600052603260045260246000fd5b600181811c9082168061141157607f821691505b602082108103610a0d57634e487b7160e01b600052602260045260246000fd5b60006001820161145157634e487b7160e01b600052601160045260246000fd5b5060010190565b601f8211156114a257600081815260208120601f850160051c8101602086101561147f5750805b601f850160051c820191505b8181101561149e5782815560010161148b565b5050505b505050565b815167ffffffffffffffff8111156114c1576114c1611144565b6114d5816114cf84546113fd565b84611458565b602080601f83116001811461150a57600084156114f25750858301515b600019600386901b1c1916600185901b17855561149e565b600085815260208120601f198616915b828110156115395788860151825594840194600190910190840161151a565b50858210156115575787850151600019600388901b60f8161c191681555b5050505050600190811b0190555056fea264697066735822122018ca87290fefbdccc136e3ff7ebe1f1622fd4ad40792ad5d59e245aa5047031364736f6c63430008110033",
  "immutableReferences": {},
  "source": "// SPDX-License-Identifier: GPL-3.0\npragma solidity 0.8.17;\n\n// Portal contract\ncontract ElectionPortal {\n\n    // Election states\n    enum State {\n        NotStarted,\n        InProgress,\n        Ended\n    }\n\n    // Candidate data structure\n    struct Candidate {\n        uint256 id;\n        uint256 voteCount; // Candidate vote count\n        string name; // Candidate name\n        string imageURL; // Candidate image URL\n    }\n\n    // Election data structure:\n    struct Election{\n        uint256 id;\n        string title;\n        Candidate [] candidates; \n        State state;\n        address owner;\n        mapping(address => bool) eligible; // For checking if address is an eligible voter\n        mapping(address => bool) hasVoted; // For checking if voter has already voted\n    }\n\n    Election [] public elections; // Array with all elections\n\n    // Returns array of election titles\n    function getElections() public view returns (string [] memory) {\n        string [] memory _titles = new string[](elections.length); \n        for(uint i=0; i < elections.length; i++){\n            _titles[i] = elections[i].title;\n        }\n        return _titles;\n    }\n\n    // Returns election title\n    function getElectionTitle(uint256 _electionId) public view returns (string memory _title) {\n        _title = elections[_electionId].title;\n    }\n\n\n    // Returns candidate structs of a specific election\n    function getCandidates(uint _electionId) public view returns (Candidate [] memory _candidates) {\n        _candidates = elections[_electionId].candidates;\n    }\n\n    // Check if msg sender is the election owner or not:\n    function isOwner(uint _electionId) public view returns (bool) {\n        if (elections[_electionId].owner == msg.sender) {\n            return true;\n        }\n        return false;\n    }\n    \n    // Check if msg sender has already voted in given election:\n    function hasVoted(uint _electionId) public view returns (bool _hasVoted) {\n        _hasVoted = elections[_electionId].hasVoted[msg.sender];\n    }\n    \n    // Returns true if msg sender is eligible to vote in given election\n    function isEligible(uint _electionId) public view returns (bool _eligible) {\n        _eligible = elections[_electionId].eligible[msg.sender];\n    }\n\n    // Vote for a specific candidate in a specific election\n    function vote(uint _electionId, uint _candidateId) public {\n        require(elections[_electionId].state == State.InProgress, \"Election not in progress\");\n        require(isEligible(_electionId), \"Ineligible for election\");\n        require(!hasVoted(_electionId), \"Already voted\");\n\n        elections[_electionId].candidates[_candidateId].voteCount++;\n        elections[_electionId].hasVoted[msg.sender] = true;\n    }   \n\n    // Return state of the election:\n    function getElectionState(uint _electionId) public view returns (uint){\n        if (elections[_electionId].state == State.NotStarted){\n            return 0;\n        }\n        else if (elections[_electionId].state == State.InProgress){\n            return 1;\n        }\n        else{\n            return 2;\n        }\n    }\n\n    // Creates a new election\n    function createElection(string memory _title, \n                            string [] memory _candidateNames, \n                            string [] memory _candidateimageURLs,\n                            address [] memory _eligibleVoters) public { \n        require(_candidateNames.length >= 2, \"Candidates less than 2\");\n        require(_candidateNames.length == _candidateimageURLs.length, \"Every candidate must have an image URL\");\n        require(_eligibleVoters.length >= 1, \"No voters\");\n\n        // Instantiate new election with parameters\n        uint256 idx = elections.length;\n        elections.push();\n        Election storage _election = elections[idx];\n        _election.title = _title;\n        _election.state = State.NotStarted;\n        _election.owner = msg.sender;\n\n        // Creates candidate structs for the election \n        for(uint i=0; i < _candidateNames.length; i++){\n            Candidate memory _candidate;\n            _candidate.id = i; \n            _candidate.voteCount = 0; \n            _candidate.name = _candidateNames[i]; \n            _candidate.imageURL = _candidateimageURLs[i];\n            _election.candidates.push(_candidate); \n        }\n\n        // Give all eligible voters the right to vote\n        for(uint i=0; i < _eligibleVoters.length; i++){\n            _election.eligible[_eligibleVoters[i]] = true;\n        }\n    }\n\n    // Sets given election state to InProgress\n    function startElection(uint _electionId) public {\n        require(msg.sender == elections[_electionId].owner, \"Only owner can start the election.\");\n        require(elections[_electionId].state != State.InProgress, \"Election is already in progress.\");\n        require(elections[_electionId].state != State.Ended, \"Election has ended.\");\n\n        elections[_electionId].state = State.InProgress;\n    }\n\n    // Sets given election state to Ended\n    function endElection(uint _electionId) public {\n        require(msg.sender == elections[_electionId].owner, \"Only owner can end the election.\");\n        require(elections[_electionId].state == State.InProgress, \"Election is not in progress.\");\n        \n        elections[_electionId].state = State.Ended;\n    }\n\n}",
  "sourcePath": "/home/snnbotchway/side-projects/blockchain-voting-platform-polygon-hackathon/truffle/contracts/ElectionPortal.sol",
  "compiler": {
    "name": "solc",
    "version": "0.8.17+commit.8df45f5f.Emscripten.clang"
  },
  "schemaVersion": "3.4.10",
  "updatedAt": "2022-12-03T15:56:45.501Z",
  "networkType": "ethereum",
  "devdoc": {
    "kind": "dev",
    "methods": {},
    "version": 1
  },
  "userdoc": {
    "kind": "user",
    "methods": {},
    "version": 1
  }
}