{
  "contractName": "ElectionPortal",
  "abi": [
    {
      "inputs": [
        {
          "internalType": "uint256",
          "name": "",
          "type": "uint256"
        }
      ],
      "name": "electionTitles",
      "outputs": [
        {
          "internalType": "string",
          "name": "",
          "type": "string"
        }
      ],
      "stateMutability": "view",
      "type": "function",
      "constant": true
    },
    {
      "inputs": [
        {
          "internalType": "uint256",
          "name": "",
          "type": "uint256"
        }
      ],
      "name": "elections",
      "outputs": [
        {
          "internalType": "uint256",
          "name": "id",
          "type": "uint256"
        },
        {
          "internalType": "string",
          "name": "title",
          "type": "string"
        },
        {
          "internalType": "enum ElectionPortal.State",
          "name": "state",
          "type": "uint8"
        },
        {
          "internalType": "address",
          "name": "owner",
          "type": "address"
        }
      ],
      "stateMutability": "view",
      "type": "function",
      "constant": true
    },
    {
      "inputs": [],
      "name": "getElections",
      "outputs": [
        {
          "internalType": "string[]",
          "name": "_titles",
          "type": "string[]"
        }
      ],
      "stateMutability": "view",
      "type": "function",
      "constant": true
    },
    {
      "inputs": [
        {
          "internalType": "uint256",
          "name": "_electionId",
          "type": "uint256"
        }
      ],
      "name": "getCandidates",
      "outputs": [
        {
          "components": [
            {
              "internalType": "uint256",
              "name": "id",
              "type": "uint256"
            },
            {
              "internalType": "uint256",
              "name": "voteCount",
              "type": "uint256"
            },
            {
              "internalType": "string",
              "name": "name",
              "type": "string"
            },
            {
              "internalType": "string",
              "name": "imageURL",
              "type": "string"
            }
          ],
          "internalType": "struct ElectionPortal.Candidate[]",
          "name": "_candidates",
          "type": "tuple[]"
        }
      ],
      "stateMutability": "view",
      "type": "function",
      "constant": true
    },
    {
      "inputs": [
        {
          "internalType": "uint256",
          "name": "_electionId",
          "type": "uint256"
        }
      ],
      "name": "isOwner",
      "outputs": [
        {
          "internalType": "bool",
          "name": "",
          "type": "bool"
        }
      ],
      "stateMutability": "view",
      "type": "function",
      "constant": true
    },
    {
      "inputs": [
        {
          "internalType": "uint256",
          "name": "_electionId",
          "type": "uint256"
        }
      ],
      "name": "hasVoted",
      "outputs": [
        {
          "internalType": "bool",
          "name": "_hasVoted",
          "type": "bool"
        }
      ],
      "stateMutability": "view",
      "type": "function",
      "constant": true
    },
    {
      "inputs": [
        {
          "internalType": "uint256",
          "name": "_electionId",
          "type": "uint256"
        }
      ],
      "name": "isEligible",
      "outputs": [
        {
          "internalType": "bool",
          "name": "_eligible",
          "type": "bool"
        }
      ],
      "stateMutability": "view",
      "type": "function",
      "constant": true
    },
    {
      "inputs": [
        {
          "internalType": "uint256",
          "name": "_electionId",
          "type": "uint256"
        },
        {
          "internalType": "uint256",
          "name": "_candidateId",
          "type": "uint256"
        }
      ],
      "name": "vote",
      "outputs": [],
      "stateMutability": "nonpayable",
      "type": "function"
    },
    {
      "inputs": [
        {
          "internalType": "uint256",
          "name": "_electionId",
          "type": "uint256"
        }
      ],
      "name": "getElectionState",
      "outputs": [
        {
          "internalType": "uint256",
          "name": "",
          "type": "uint256"
        }
      ],
      "stateMutability": "view",
      "type": "function",
      "constant": true
    },
    {
      "inputs": [
        {
          "internalType": "string",
          "name": "_title",
          "type": "string"
        },
        {
          "internalType": "string[]",
          "name": "_candidateNames",
          "type": "string[]"
        },
        {
          "internalType": "string[]",
          "name": "_candidateimageURLs",
          "type": "string[]"
        },
        {
          "internalType": "address[]",
          "name": "_eligibleVoters",
          "type": "address[]"
        }
      ],
      "name": "createElection",
      "outputs": [],
      "stateMutability": "nonpayable",
      "type": "function"
    },
    {
      "inputs": [
        {
          "internalType": "uint256",
          "name": "_electionId",
          "type": "uint256"
        }
      ],
      "name": "startElection",
      "outputs": [],
      "stateMutability": "nonpayable",
      "type": "function"
    },
    {
      "inputs": [
        {
          "internalType": "uint256",
          "name": "_electionId",
          "type": "uint256"
        }
      ],
      "name": "endElection",
      "outputs": [],
      "stateMutability": "nonpayable",
      "type": "function"
    }
  ],
  "bytecode": "0x608060405234801561001057600080fd5b5061246b806100206000396000f3fe608060405234801561001057600080fd5b50600436106100b45760003560e01c80639c98bcbb116100715780639c98bcbb146101c85780639f3a7f52146101e4578063abbc5a4b14610202578063b210eaa81461021e578063b384abef1461024e578063ecca031f1461026a576100b4565b8063053b56c0146100b957806325977345146100e957806339c7639c146101195780633e39a7a5146101495780635e6fef01146101795780636d32dc4b146101ac575b600080fd5b6100d360048036038101906100ce91906112d2565b61029a565b6040516100e0919061131a565b60405180910390f35b61010360048036038101906100fe91906112d2565b610312565b60405161011091906113c5565b60405180910390f35b610133600480360381019061012e91906112d2565b6103be565b604051610140919061131a565b60405180910390f35b610163600480360381019061015e91906112d2565b61044b565b604051610170919061156c565b60405180910390f35b610193600480360381019061018e91906112d2565b610607565b6040516101a39493929190611655565b60405180910390f35b6101c660048036038101906101c191906112d2565b6106fc565b005b6101e260048036038101906101dd91906112d2565b610931565b005b6101ec610ace565b6040516101f99190611763565b60405180910390f35b61021c60048036038101906102179190611a8f565b610ba7565b005b610238600480360381019061023391906112d2565b610f08565b6040516102459190611b66565b60405180910390f35b61026860048036038101906102639190611b81565b610fe1565b005b610284600480360381019061027f91906112d2565b6111e8565b604051610291919061131a565b60405180910390f35b60008082815481106102af576102ae611bc1565b5b906000526020600020906006020160040160003373ffffffffffffffffffffffffffffffffffffffff1673ffffffffffffffffffffffffffffffffffffffff16815260200190815260200160002060009054906101000a900460ff169050919050565b6001818154811061032257600080fd5b90600052602060002001600091509050805461033d90611c1f565b80601f016020809104026020016040519081016040528092919081815260200182805461036990611c1f565b80156103b65780601f1061038b576101008083540402835291602001916103b6565b820191906000526020600020905b81548152906001019060200180831161039957829003601f168201915b505050505081565b60003373ffffffffffffffffffffffffffffffffffffffff16600083815481106103eb576103ea611bc1565b5b906000526020600020906006020160030160019054906101000a900473ffffffffffffffffffffffffffffffffffffffff1673ffffffffffffffffffffffffffffffffffffffff16036104415760019050610446565b600090505b919050565b60606000828154811061046157610460611bc1565b5b9060005260206000209060060201600201805480602002602001604051908101604052809291908181526020016000905b828210156105fc578382906000526020600020906004020160405180608001604052908160008201548152602001600182015481526020016002820180546104d990611c1f565b80601f016020809104026020016040519081016040528092919081815260200182805461050590611c1f565b80156105525780601f1061052757610100808354040283529160200191610552565b820191906000526020600020905b81548152906001019060200180831161053557829003601f168201915b5050505050815260200160038201805461056b90611c1f565b80601f016020809104026020016040519081016040528092919081815260200182805461059790611c1f565b80156105e45780601f106105b9576101008083540402835291602001916105e4565b820191906000526020600020905b8154815290600101906020018083116105c757829003601f168201915b50505050508152505081526020019060010190610492565b505050509050919050565b6000818154811061061757600080fd5b906000526020600020906006020160009150905080600001549080600101805461064090611c1f565b80601f016020809104026020016040519081016040528092919081815260200182805461066c90611c1f565b80156106b95780601f1061068e576101008083540402835291602001916106b9565b820191906000526020600020905b81548152906001019060200180831161069c57829003601f168201915b5050505050908060030160009054906101000a900460ff16908060030160019054906101000a900473ffffffffffffffffffffffffffffffffffffffff16905084565b600081815481106107105761070f611bc1565b5b906000526020600020906006020160030160019054906101000a900473ffffffffffffffffffffffffffffffffffffffff1673ffffffffffffffffffffffffffffffffffffffff163373ffffffffffffffffffffffffffffffffffffffff16146107af576040517f08c379a00000000000000000000000000000000000000000000000000000000081526004016107a690611cc2565b60405180910390fd5b600160028111156107c3576107c261159d565b5b600082815481106107d7576107d6611bc1565b5b906000526020600020906006020160030160009054906101000a900460ff1660028111156108085761080761159d565b5b03610848576040517f08c379a000000000000000000000000000000000000000000000000000000000815260040161083f90611d2e565b60405180910390fd5b60028081111561085b5761085a61159d565b5b6000828154811061086f5761086e611bc1565b5b906000526020600020906006020160030160009054906101000a900460ff1660028111156108a05761089f61159d565b5b036108e0576040517f08c379a00000000000000000000000000000000000000000000000000000000081526004016108d790611d9a565b60405180910390fd5b6001600082815481106108f6576108f5611bc1565b5b906000526020600020906006020160030160006101000a81548160ff021916908360028111156109295761092861159d565b5b021790555050565b6000818154811061094557610944611bc1565b5b906000526020600020906006020160030160019054906101000a900473ffffffffffffffffffffffffffffffffffffffff1673ffffffffffffffffffffffffffffffffffffffff163373ffffffffffffffffffffffffffffffffffffffff16146109e4576040517f08c379a00000000000000000000000000000000000000000000000000000000081526004016109db90611e06565b60405180910390fd5b600160028111156109f8576109f761159d565b5b60008281548110610a0c57610a0b611bc1565b5b906000526020600020906006020160030160009054906101000a900460ff166002811115610a3d57610a3c61159d565b5b14610a7d576040517f08c379a0000000000000000000000000000000000000000000000000000000008152600401610a7490611e72565b60405180910390fd5b600260008281548110610a9357610a92611bc1565b5b906000526020600020906006020160030160006101000a81548160ff02191690836002811115610ac657610ac561159d565b5b021790555050565b60606001805480602002602001604051908101604052809291908181526020016000905b82821015610b9e578382906000526020600020018054610b1190611c1f565b80601f0160208091040260200160405190810160405280929190818152602001828054610b3d90611c1f565b8015610b8a5780601f10610b5f57610100808354040283529160200191610b8a565b820191906000526020600020905b815481529060010190602001808311610b6d57829003601f168201915b505050505081526020019060010190610af2565b50505050905090565b600283511015610bec576040517f08c379a0000000000000000000000000000000000000000000000000000000008152600401610be390611ede565b60405180910390fd5b8151835114610c30576040517f08c379a0000000000000000000000000000000000000000000000000000000008152600401610c2790611f70565b60405180910390fd5b600181511015610c75576040517f08c379a0000000000000000000000000000000000000000000000000000000008152600401610c6c90611fdc565b60405180910390fd5b600184908060018154018082558091505060019003906000526020600020016000909190919091509081610ca991906121a8565b506000808054905090506000600181600181540180825580915050039060005260206000209050506000808281548110610ce657610ce5611bc1565b5b9060005260206000209060060201905085816001019081610d0791906121a8565b5060008160030160006101000a81548160ff02191690836002811115610d3057610d2f61159d565b5b0217905550338160030160016101000a81548173ffffffffffffffffffffffffffffffffffffffff021916908373ffffffffffffffffffffffffffffffffffffffff16021790555060005b8551811015610e6b57610d8c611260565b818160000181815250506000816020018181525050868281518110610db457610db3611bc1565b5b60200260200101518160400181905250858281518110610dd757610dd6611bc1565b5b602002602001015181606001819052508260020181908060018154018082558091505060019003906000526020600020906004020160009091909190915060008201518160000155602082015181600101556040820151816002019081610e3e91906121a8565b506060820151816003019081610e5491906121a8565b505050508080610e63906122a9565b915050610d7b565b5060005b8351811015610eff576001826004016000868481518110610e9357610e92611bc1565b5b602002602001015173ffffffffffffffffffffffffffffffffffffffff1673ffffffffffffffffffffffffffffffffffffffff16815260200190815260200160002060006101000a81548160ff0219169083151502179055508080610ef7906122a9565b915050610e6f565b50505050505050565b6000806002811115610f1d57610f1c61159d565b5b60008381548110610f3157610f30611bc1565b5b906000526020600020906006020160030160009054906101000a900460ff166002811115610f6257610f6161159d565b5b03610f705760009050610fdc565b60016002811115610f8457610f8361159d565b5b60008381548110610f9857610f97611bc1565b5b906000526020600020906006020160030160009054906101000a900460ff166002811115610fc957610fc861159d565b5b03610fd75760019050610fdc565b600290505b919050565b60016002811115610ff557610ff461159d565b5b6000838154811061100957611008611bc1565b5b906000526020600020906006020160030160009054906101000a900460ff16600281111561103a5761103961159d565b5b1461107a576040517f08c379a00000000000000000000000000000000000000000000000000000000081526004016110719061233d565b60405180910390fd5b6110838261029a565b6110c2576040517f08c379a00000000000000000000000000000000000000000000000000000000081526004016110b9906123a9565b60405180910390fd5b6110cb826111e8565b1561110b576040517f08c379a000000000000000000000000000000000000000000000000000000000815260040161110290612415565b60405180910390fd5b6000828154811061111f5761111e611bc1565b5b9060005260206000209060060201600201818154811061114257611141611bc1565b5b90600052602060002090600402016001016000815480929190611164906122a9565b919050555060016000838154811061117f5761117e611bc1565b5b906000526020600020906006020160050160003373ffffffffffffffffffffffffffffffffffffffff1673ffffffffffffffffffffffffffffffffffffffff16815260200190815260200160002060006101000a81548160ff0219169083151502179055505050565b60008082815481106111fd576111fc611bc1565b5b906000526020600020906006020160050160003373ffffffffffffffffffffffffffffffffffffffff1673ffffffffffffffffffffffffffffffffffffffff16815260200190815260200160002060009054906101000a900460ff169050919050565b6040518060800160405280600081526020016000815260200160608152602001606081525090565b6000604051905090565b600080fd5b600080fd5b6000819050919050565b6112af8161129c565b81146112ba57600080fd5b50565b6000813590506112cc816112a6565b92915050565b6000602082840312156112e8576112e7611292565b5b60006112f6848285016112bd565b91505092915050565b60008115159050919050565b611314816112ff565b82525050565b600060208201905061132f600083018461130b565b92915050565b600081519050919050565b600082825260208201905092915050565b60005b8381101561136f578082015181840152602081019050611354565b60008484015250505050565b6000601f19601f8301169050919050565b600061139782611335565b6113a18185611340565b93506113b1818560208601611351565b6113ba8161137b565b840191505092915050565b600060208201905081810360008301526113df818461138c565b905092915050565b600081519050919050565b600082825260208201905092915050565b6000819050602082019050919050565b61141c8161129c565b82525050565b600082825260208201905092915050565b600061143e82611335565b6114488185611422565b9350611458818560208601611351565b6114618161137b565b840191505092915050565b60006080830160008301516114846000860182611413565b5060208301516114976020860182611413565b50604083015184820360408601526114af8282611433565b915050606083015184820360608601526114c98282611433565b9150508091505092915050565b60006114e2838361146c565b905092915050565b6000602082019050919050565b6000611502826113e7565b61150c81856113f2565b93508360208202850161151e85611403565b8060005b8581101561155a578484038952815161153b85826114d6565b9450611546836114ea565b925060208a01995050600181019050611522565b50829750879550505050505092915050565b6000602082019050818103600083015261158681846114f7565b905092915050565b6115978161129c565b82525050565b7f4e487b7100000000000000000000000000000000000000000000000000000000600052602160045260246000fd5b600381106115dd576115dc61159d565b5b50565b60008190506115ee826115cc565b919050565b60006115fe826115e0565b9050919050565b61160e816115f3565b82525050565b600073ffffffffffffffffffffffffffffffffffffffff82169050919050565b600061163f82611614565b9050919050565b61164f81611634565b82525050565b600060808201905061166a600083018761158e565b818103602083015261167c818661138c565b905061168b6040830185611605565b6116986060830184611646565b95945050505050565b600081519050919050565b600082825260208201905092915050565b6000819050602082019050919050565b60006116d98383611433565b905092915050565b6000602082019050919050565b60006116f9826116a1565b61170381856116ac565b935083602082028501611715856116bd565b8060005b85811015611751578484038952815161173285826116cd565b945061173d836116e1565b925060208a01995050600181019050611719565b50829750879550505050505092915050565b6000602082019050818103600083015261177d81846116ee565b905092915050565b600080fd5b600080fd5b7f4e487b7100000000000000000000000000000000000000000000000000000000600052604160045260246000fd5b6117c78261137b565b810181811067ffffffffffffffff821117156117e6576117e561178f565b5b80604052505050565b60006117f9611288565b905061180582826117be565b919050565b600067ffffffffffffffff8211156118255761182461178f565b5b61182e8261137b565b9050602081019050919050565b82818337600083830152505050565b600061185d6118588461180a565b6117ef565b9050828152602081018484840111156118795761187861178a565b5b61188484828561183b565b509392505050565b600082601f8301126118a1576118a0611785565b5b81356118b184826020860161184a565b91505092915050565b600067ffffffffffffffff8211156118d5576118d461178f565b5b602082029050602081019050919050565b600080fd5b60006118fe6118f9846118ba565b6117ef565b90508083825260208201905060208402830185811115611921576119206118e6565b5b835b8181101561196857803567ffffffffffffffff81111561194657611945611785565b5b808601611953898261188c565b85526020850194505050602081019050611923565b5050509392505050565b600082601f83011261198757611986611785565b5b81356119978482602086016118eb565b91505092915050565b600067ffffffffffffffff8211156119bb576119ba61178f565b5b602082029050602081019050919050565b6119d581611634565b81146119e057600080fd5b50565b6000813590506119f2816119cc565b92915050565b6000611a0b611a06846119a0565b6117ef565b90508083825260208201905060208402830185811115611a2e57611a2d6118e6565b5b835b81811015611a575780611a4388826119e3565b845260208401935050602081019050611a30565b5050509392505050565b600082601f830112611a7657611a75611785565b5b8135611a868482602086016119f8565b91505092915050565b60008060008060808587031215611aa957611aa8611292565b5b600085013567ffffffffffffffff811115611ac757611ac6611297565b5b611ad38782880161188c565b945050602085013567ffffffffffffffff811115611af457611af3611297565b5b611b0087828801611972565b935050604085013567ffffffffffffffff811115611b2157611b20611297565b5b611b2d87828801611972565b925050606085013567ffffffffffffffff811115611b4e57611b4d611297565b5b611b5a87828801611a61565b91505092959194509250565b6000602082019050611b7b600083018461158e565b92915050565b60008060408385031215611b9857611b97611292565b5b6000611ba6858286016112bd565b9250506020611bb7858286016112bd565b9150509250929050565b7f4e487b7100000000000000000000000000000000000000000000000000000000600052603260045260246000fd5b7f4e487b7100000000000000000000000000000000000000000000000000000000600052602260045260246000fd5b60006002820490506001821680611c3757607f821691505b602082108103611c4a57611c49611bf0565b5b50919050565b7f4f6e6c79206f776e65722063616e2073746172742074686520656c656374696f60008201527f6e2e000000000000000000000000000000000000000000000000000000000000602082015250565b6000611cac602283611340565b9150611cb782611c50565b604082019050919050565b60006020820190508181036000830152611cdb81611c9f565b9050919050565b7f456c656374696f6e20697320616c726561647920696e2070726f67726573732e600082015250565b6000611d18602083611340565b9150611d2382611ce2565b602082019050919050565b60006020820190508181036000830152611d4781611d0b565b9050919050565b7f456c656374696f6e2068617320656e6465642e00000000000000000000000000600082015250565b6000611d84601383611340565b9150611d8f82611d4e565b602082019050919050565b60006020820190508181036000830152611db381611d77565b9050919050565b7f4f6e6c79206f776e65722063616e20656e642074686520656c656374696f6e2e600082015250565b6000611df0602083611340565b9150611dfb82611dba565b602082019050919050565b60006020820190508181036000830152611e1f81611de3565b9050919050565b7f456c656374696f6e206973206e6f7420696e2070726f67726573732e00000000600082015250565b6000611e5c601c83611340565b9150611e6782611e26565b602082019050919050565b60006020820190508181036000830152611e8b81611e4f565b9050919050565b7f4d7573742062652074776f206f72206d6f72652063616e646964617465732e00600082015250565b6000611ec8601f83611340565b9150611ed382611e92565b602082019050919050565b60006020820190508181036000830152611ef781611ebb565b9050919050565b7f45766572792063616e646964617465206d757374206861766520616e20696d6160008201527f67652055524c0000000000000000000000000000000000000000000000000000602082015250565b6000611f5a602683611340565b9150611f6582611efe565b604082019050919050565b60006020820190508181036000830152611f8981611f4d565b9050919050565b7f5468657265206d757374206265206174206c65617374206f6e6520766f746572600082015250565b6000611fc6602083611340565b9150611fd182611f90565b602082019050919050565b60006020820190508181036000830152611ff581611fb9565b9050919050565b60008190508160005260206000209050919050565b60006020601f8301049050919050565b600082821b905092915050565b60006008830261205e7fffffffffffffffffffffffffffffffffffffffffffffffffffffffffffffffff82612021565b6120688683612021565b95508019841693508086168417925050509392505050565b6000819050919050565b60006120a56120a061209b8461129c565b612080565b61129c565b9050919050565b6000819050919050565b6120bf8361208a565b6120d36120cb826120ac565b84845461202e565b825550505050565b600090565b6120e86120db565b6120f38184846120b6565b505050565b5b818110156121175761210c6000826120e0565b6001810190506120f9565b5050565b601f82111561215c5761212d81611ffc565b61213684612011565b81016020851015612145578190505b61215961215185612011565b8301826120f8565b50505b505050565b600082821c905092915050565b600061217f60001984600802612161565b1980831691505092915050565b6000612198838361216e565b9150826002028217905092915050565b6121b182611335565b67ffffffffffffffff8111156121ca576121c961178f565b5b6121d48254611c1f565b6121df82828561211b565b600060209050601f8311600181146122125760008415612200578287015190505b61220a858261218c565b865550612272565b601f19841661222086611ffc565b60005b8281101561224857848901518255600182019150602085019450602081019050612223565b868310156122655784890151612261601f89168261216e565b8355505b6001600288020188555050505b505050505050565b7f4e487b7100000000000000000000000000000000000000000000000000000000600052601160045260246000fd5b60006122b48261129c565b91507fffffffffffffffffffffffffffffffffffffffffffffffffffffffffffffffff82036122e6576122e561227a565b5b600182019050919050565b7f456c656374696f6e206e6f7420696e2070726f67726573730000000000000000600082015250565b6000612327601883611340565b9150612332826122f1565b602082019050919050565b600060208201905081810360008301526123568161231a565b9050919050565b7f496e656c696769626c6520666f7220656c656374696f6e000000000000000000600082015250565b6000612393601783611340565b915061239e8261235d565b602082019050919050565b600060208201905081810360008301526123c281612386565b9050919050565b7f416c726561647920766f74656400000000000000000000000000000000000000600082015250565b60006123ff600d83611340565b915061240a826123c9565b602082019050919050565b6000602082019050818103600083015261242e816123f2565b905091905056fea26469706673582212208c30a4f1157f21dc4f1003515f5d763f3d6cc9184d390733c36c1caba7ea833564736f6c63430008110033",
  "immutableReferences": {},
  "source": "// SPDX-License-Identifier: GPL-3.0\npragma solidity 0.8.17;\n\n// Portal contract\ncontract ElectionPortal {\n\n    // Election states\n    enum State {\n        NotStarted,\n        InProgress,\n        Ended\n    }\n\n    // Candidate data structure\n    struct Candidate {\n        uint256 id;\n        uint256 voteCount; // Candidate vote count\n        string name; // Candidate name\n        string imageURL; // Candidate image URL\n    }\n\n    // Election data structure:\n    struct Election{\n        uint256 id;\n        string title;\n        Candidate [] candidates; \n        State state;\n        address owner;\n        mapping(address => bool) eligible; // For checking if address is an eligible voter\n        mapping(address => bool) hasVoted; // For checking if voter has already voted\n    }\n\n    Election [] public elections; // Array with all elections\n    string [] public electionTitles; // Array with all election names\n\n    // return elections\n    function getElections() public view returns (string [] memory _titles) {\n        _titles = electionTitles;\n    }\n\n    // return candidate structs of a specific election\n    function getCandidates(uint _electionId) public view returns (Candidate [] memory _candidates) {\n        _candidates = elections[_electionId].candidates;\n    }\n\n    // Check if msg sender is the election owner or not:\n    function isOwner(uint _electionId) public view returns (bool) {\n        if (elections[_electionId].owner == msg.sender) {\n            return true;\n        }\n        return false;\n    }\n    \n    // Check if msg sender has already voted in given election:\n    function hasVoted(uint _electionId) public view returns (bool _hasVoted) {\n        _hasVoted = elections[_electionId].hasVoted[msg.sender];\n    }\n    \n    // Returns true if msg sender is eligible to vote in given election\n    function isEligible(uint _electionId) public view returns (bool _eligible) {\n        _eligible = elections[_electionId].eligible[msg.sender];\n    }\n\n    // Vote for a specific candidate in a given election\n    function vote(uint _electionId, uint _candidateId) public {\n        require(elections[_electionId].state == State.InProgress, \"Election not in progress\");\n        require(isEligible(_electionId), \"Ineligible for election\");\n        require(!hasVoted(_electionId), \"Already voted\");\n\n        elections[_electionId].candidates[_candidateId].voteCount++;\n        elections[_electionId].hasVoted[msg.sender] = true;\n    }   \n\n    // Return state of the election:\n    function getElectionState(uint _electionId) public view returns (uint){\n        if (elections[_electionId].state == State.NotStarted){\n            return 0;\n        }\n        else if (elections[_electionId].state == State.InProgress){\n            return 1;\n        }\n        else{\n            return 2;\n        }\n    }\n\n    // Creates a new election\n    function createElection(string memory _title, \n                            string [] memory _candidateNames, \n                            string [] memory _candidateimageURLs,\n                            address [] memory _eligibleVoters) public { \n        require(_candidateNames.length >= 2, \"Must be two or more candidates.\");\n        require(_candidateNames.length == _candidateimageURLs.length, \"Every candidate must have an image URL\");\n        require(_eligibleVoters.length >= 1, \"There must be at least one voter\");\n\n        // Store election title\n        electionTitles.push(_title);\n\n        // Instantiate new election with parameters\n        uint256 idx = elections.length;\n        elections.push();\n        Election storage _election = elections[idx];\n        _election.title = _title;\n        _election.state = State.NotStarted;\n        _election.owner = msg.sender;\n\n        // Creates candidate structs for the election \n        for(uint i=0; i < _candidateNames.length; i++){\n            Candidate memory _candidate;\n            _candidate.id = i; \n            _candidate.voteCount = 0; \n            _candidate.name = _candidateNames[i]; \n            _candidate.imageURL = _candidateimageURLs[i];\n            _election.candidates.push(_candidate); \n        }\n\n        // Give all eligible voters the right to vote\n        for(uint i=0; i < _eligibleVoters.length; i++){\n            _election.eligible[_eligibleVoters[i]] = true;\n        }\n    }\n\n    // Sets given election state to InProgress\n    function startElection(uint _electionId) public {\n        require(msg.sender == elections[_electionId].owner, \"Only owner can start the election.\");\n        require(elections[_electionId].state != State.InProgress, \"Election is already in progress.\");\n        require(elections[_electionId].state != State.Ended, \"Election has ended.\");\n\n        elections[_electionId].state = State.InProgress;\n    }\n\n    // Sets given election state to Ended\n    function endElection(uint _electionId) public {\n        require(msg.sender == elections[_electionId].owner, \"Only owner can end the election.\");\n        require(elections[_electionId].state == State.InProgress, \"Election is not in progress.\");\n        \n        elections[_electionId].state = State.Ended;\n    }\n\n}",
  "sourcePath": "/home/snnbotchway/side-projects/blockchain-voting-platform-polygon-hackathon/truffle/contracts/ElectionPortal.sol",
  "compiler": {
    "name": "solc",
    "version": "0.8.17+commit.8df45f5f.Emscripten.clang"
  },
  "schemaVersion": "3.4.10",
  "updatedAt": "2022-12-02T16:05:53.553Z",
  "networkType": "ethereum",
  "devdoc": {
    "kind": "dev",
    "methods": {},
    "version": 1
  },
  "userdoc": {
    "kind": "user",
    "methods": {},
    "version": 1
  }
}